S02100006A706163693030315F66696E616C70726F6A6563745F6361722E7372656376
S113000050C000006BC0000069C0000067C0000061
S113001065C0000063C0000061C000005FC0000054
S11300205DC000005BC0000059C0000057C0000064
S113003055C000003AC1000051C000004FC000008C
S11300404DC000004BC0000049C0000047C0000084
S113005045C0000043C0000041C000003FC0000094
S11300603DC000003BC0000039C0000037C00000A4
S113007035C0000033C0000031C000002FC00000B4
S11300802DC000002BC0000029C00000C2007F006A
S113009083008A00C800C800A100B700E100AC00DA
S11300A0860011241FBECFEFD0E4DEBFCDBF11E028
S11300B0A0E0B1E0ECE2F4E000E00BBF02C0079086
S11300C00D92A430B107D9F721E0A4E0B1E001C05A
S11300D01D92AF31B207E1F76BD1A6C191CF20B128
S11300E031E0422F417020FD30E030931B018B3012
S11300F0910508F06BC0FC01EA5BFF4F8CC14423FF
S113010009F467C03FC0411143C00895442309F472
S113011062C038C080911901882329F080911D01A3
S113012081114AC03AC080911501882329F0809139
S11301301D01811146C036C080911D01811137C057
S113014027C080911C01833018F010921C0139C023
S11301508F5F80931C011CC020911601243018F07D
S11301601092160115C02F5F2093160108958091F7
S11301701A01833018F010921A011EC08F5F809309
S11301801A0106C015B810921E0181E090E008958E
S113019085E085B983E090E0089584E085B984E042
S11301A090E0089581E085B985E090E008958AE0C3
S11301B085B988E090E0089586E085B986E090E00E
S11301C0089589E085B987E090E0089580E090E0A3
S11301D0089582E090E00895CF92DF92EF92FF922B
S11301E01F93CF93DF9310920F0180911001882306
S11301F009F453C080E01BE0C0911701D0911801AD
S1130200189FC00DD11D11244D815E816F817885A9
S113021089819A81AB81BC81481759076A077B079A
S1130220B0F08881E985FA85082E000C990B0995B0
S1130230888380910F01E0911701F0911801189FB4
S1130240E00DF11D1124158216821782108680910B
S11302500F01E0911701F0911801189FE00DF11DB5
S11302601124C580D680E780F0844091000150912C
S1130270010160910201709103014C0D5D1D6E1D21
S11302807F1D45835683678370878F5F80930F013B
S113029090911001891708F4AFCFDF91CF911F918E
S11302A0FF90EF90DF90CF9008951F920F920FB6BA
S11302B00F9211240BB60F922F933F934F935F939A
S11302C06F937F938F939F93AF93BF93EF93FF931A
S11302D08091110190911201A0911301B091140128
S11302E00197A109B1098093110190931201A09380
S11302F01301B0931401892B8A2B8B2B89F46CDFA7
S11303008091000190910101A0910201B09103013B
S11303108093110190931201A0931301B0931401DF
S1130320FF91EF91BF91AF919F918F917F916F91C9
S11303305F914F913F912F910F900BBE0F900FBE85
S11303400F901F90189560930001709301018093A2
S11303500201909303016093110170931201809341
S113036013019093140108958BE0809381008DE72D
S113037090E0909389008093880082E080936F00DE
S113038010928500109284008091000190910101E7
S1130390A0910201B0910301809311019093120185
S11303A0A0931301B09314018FB780688FBF089591
S11303B011B88FEF82B984B915B841E050E060E01C
S11303C070E0409300015093010160930201709327
S11303D00301E4E0F1E0F0931801E093170191E0E8
S11303E09093100180838AEF90E0A0E0B0E08183D5
S11303F09283A383B48385839683A783B0878FE690
S113040090E09287818761E070E080E090E09BDF7C
S1130410ABDFE2DEFECFEE0FFF1F0024001C0BBE9D
S10F04200790F691E02D0994F894FFCFAA
S107042C01000000C7
S9030000FC
